S00F0000544553546932632E73726563D7
S31500000000D8490020611B0000A91800005D1B0000F4
S315000000105D1B00005D1B00005D1B00005D1B0000FA
S315000000200000000000000000000000005D1B000052
S315000000305D1B0000000000005D1B00005D1B000052
S31500000040451200007D13000059140000F51400004D
S31500000050450C0000C10B0000D10C0000050D00008E
S31500000060ED16000000000000000000000000000087
S31500000070000000000000000005160000000000005F
S31500000080000000000000000000000000000000006A
S31500000090000000000000000000000000000000005A
S315000000A0000000000000000000000000000000004A
S315000000B0000000000000000000000000000000003A
S31500000400FFFFFFFFDFCEFFFFFCFF0F00FFFF0F0028
S31500000410FCFF0F00FFFF0F00FCFF0F00FFFF0F00A8
S31500000420FCFF0F20FFFF0F20FCFF7F40FFFF7F40F8
S31500000430FCFF0D40FFFF0D40FFFFFFFF44F2D81009
S3150000044044F2D813C2F20000C2F2000310B5834290
S3150000045005D040F20003C0F2000303B1984710BD77
S3150000046044F2D81044F2D813C2F20000C2F20003DC
S315000004701B1A9A10D90F8918491010B529B140F2E4
S315000004800003C0F2000303B1984710BD10B544F253
S31500000490F014C2F20004237873B9FFF7CFFF40F2DD
S315000004A00003C0F200032BB146F61440C0F2000070
S315000004B000E000BF0123237010BDC04640F20003D8
S315000004C0C0F2000310B54BB144F2F41146F61440E5
S315000004D0C2F20001C0F2000000E000BFFFF7C0FF5B
S315000004E010BDC04644F20C230279C2F200031A7012
S315000004F07047C04646F29C7346F2A87110B5C0F22A
S3150000050000031868C0F2000100F0E8FD40F2E8318F
S315000005100A2001F09BF910BDF0B50E00140085B05D
S3150000052001AD070009220021280003F0B3F82E7060
S315000005302CB16B4622003900581D03F011F9290031
S3150000054044F2783044F20C25621C44F20004002385
S31500000550C2F20000C2F2000500F000FE2B78C2F2E3
S315000005600004032B0CD0236853B140F2E83101207C
S3150000057001F06CF923682A78013B2360032AF3D142
S3150000058040F2F41323600121092001F05FF923688A
S31500000590013B2360002BF6D1F533FF33236005B012
S315000005A0F0BDC046F0B5C64600B582B000230700D0
S315000005B0904644F278306A4644F20C2644F200042F
S315000005C09380C2F2000011710123012201A9C2F237
S315000005D0000600F0C3FD3378C2F20004032B0CD0F2
S315000005E0236853B1012140F2901001F02FF92368DE
S315000005F03578013B2360032DF3D140F2F41301213A
S31500000600FA20236001F022F944F2783000234246B2
S315000006103900C2F2000000F0E1FC02B080BCB8462E
S31500000620F0BDC04630B5C1B040F20012FF216846A9
S3150000063003F030F800246D46210028000822FFF759
S315000006406BFF0834083540ABE4B29D42F4D141B0AB
S3150000065030BDC046F0B5CE4600B592B0212200218D
S31500000660684603F017F82122002109A803F012F8C2
S3150000067046F28460C0F2000002F020FF6D460024BE
S315000006800F2603E0013401351E2C12D046F2986085
S3150000069021002C70C0F2000002F0A2FE33002340BD
S315000006A00F2BEFD10A20013402F0AAFE01351E2CD1
S315000006B0ECD100246D462100083428000822E4B25B
S315000006C0FFF72AFF0835182CF5D10622182106A8AF
S315000006D0FFF722FF46F2A0602327C0F2000002F0D7
S315000006E0EDFE40F2E8310A2001F0B0F81E220021AA
S315000006F009A8FFF757FF40F2E8310A2001F0A6F8F3
S31500000700002640F20F09173C6F4403E0013401361E
S315000007101F2C17D06A46013A3B5D115DB5B299426E
S3150000072018D146F29860C0F2000002F059FE4B461E
S315000007301D400F2DEAD10A20013402F061FE013678
S315000007401F2CE7D146F2F860C0F2000002F0B6FEB8
S31500000750012014E046F2B4601900C0F2000002F075
S315000007603FFE46F2C060C0F2000002F0A7FE46F26D
S31500000770F4603100C0F2000002F032FE002012B038
S3150000078080BCB946F0BDC04646F2687144F24830B6
S3150000079010B5C0F20001C2F2000000F0FDF800B989
S315000007A010BD46F21C7346F2547246F230700B21AD
S315000007B0C0F20003C0F20002C0F2000001F040F8EF
S315000007C010B50379022B0CD0042B00D010BD01000C
S315000007D044F2102001220831C2F2000000F01CF899
S315000007E0F4E744F20D230122C2F200031A70EDE78A
S315000007F044F2483010B5C2F20000140000F080F850
S3150000080044F20D21C2F200010B78002BFCD000232C
S3150000081020000B7010BDC04670B500282BD040F2EA
S315000008202C14438805885D1B2D35FF3595FBF4F4A4
S31500000830A60036193401A41BA400641B2C34FF3413
S31500000840A4B2A24217D8002640F22C1C8AB18D5DB4
S31500000850C41801339BB22571B3FBFCF4A5002D1916
S315000008602C01641BA4001B1B9BB2013643809642DD
S31500000870EDDB012070BD0020FCE7C04610B5FFF798
S3150000088039FEFFF781FFFFF7CDFEFFF7E3FE0128F4
S315000008900ED144F24030012240F20721C2F200009C
S315000008A000F060FAFFF7BEFEFFF7D4FE0128F0D095
S315000008B044F24030002240F20131C2F2000000F062
S315000008C051FAE0E710B538B94CF200039022012145
S315000008D0C4F27E03995410BD0228FCD146F2D871A9
S315000008E044F24030C0F20001C2F2000000F0BCFA4F
S315000008F0F1E7C04610B5FFF7C1FF002010BDC046A6
S315000009007B2330B5046AA5782B40A37080248378B6
S315000009109B079B0FD21A0261CB18026AC3609378B9
S3150000092023439370032382781340022B04D0036A77
S315000009300A78DA70002030BD0B884FF60061026A33
S315000009400B43D381F6E7C046F0B5C64600B50500B1
S31500000950806A84B08C4690466C46D8B12300060067
S3150000096086CE86C336681E60EB691B7803606346D5
S31500000970836043460371EB6AC3606B6A9847AB6A50
S3150000098023B123CC23C31A002368136004B080BCB0
S31500000990B846F0BD2000E7E743F60002F0B5C646CC
S315000009A0C0F200229446002600B50B780670634418
S315000009B05B01C16103624B690D0043628B690321D0
S315000009C00122C362837886628B43134383706A78FD
S315000009D00B2753425A41837801328B43134383706A
S315000009E0AB7A04009846EF57380000F0D9FF38007C
S315000009F000F080FF380005272200414600F088FFFE
S31500000A002B79EF579846380000F0CAFF380000F0FF
S31500000A1071FF380007272200414600F079FFAB79C5
S31500000A20EF579846380000F0BBFF380000F062FF31
S31500000A30380009272200414600F06AFF2B7AEF575B
S31500000A409846380000F0ACFF380000F053FF220053
S31500000A504146380000F05CFFEFF31087012080F379
S31500000A60108846F6FC732978C4F204038C465A684B
S31500000A708021904662460906D14042468A435A6022
S31500000A805B6887F31088236A9E70236A1E71236A47
S31500000A905E72236A9E72236ADE72236A5E8340F266
S31500000AA007232A78D340184202D04022236ADA74F8
S31500000AB00622236A1A772B7813B9236A3F4A9A8249
S31500000AC0AB78EA781B01D20013436A78032A00D177
S31500000AD06FE051424A410F2152428A43F232216A63
S31500000AE0DBB20B70236AFF269A710223EA69206A39
S31500000AF0117B49000B4020214373907853784001C5
S31500000B0001400020DB0133400B43216A0872117853
S31500000B100239012942D90326216ADBB2CB71526818
S31500000B20216A93784B700B785078B3433040034377
S31500000B300B70D37859368B74C8791378B043334029
S31500000B400343CB7100230520E36023616361A36146
S31500000B50EE69033335781D40E369185600F0FEFE52
S31500000B600B20E369185600F0F9FE0720E3691856D2
S31500000B7000F0F4FE0920E369185600F0EFFE70233A
S31500000B80226A2B43937073890020238144F6551300
S31500000B90C5F24333636080BCB846F0BD216A4E702F
S31500000BA01278022A01D10E321343226ADBB2D371C4
S31500000BB0C8E73D321343B23291E7C04600F8FFFF63
S31500000BC010B5EFF30384103C64B2200000F092FEEF
S31500000BD044F2FC33A400C2F20003E058C3691B6967
S31500000BE09BB1036903B110BD026A7F2391780B4064
S31500000BF004210B4393700023C360436A002BF2D099
S31500000C0080220021FFF7A0FEEDE70369026A002BB0
S31500000C10EBD003238478C1682340022B0BD00B78DA
S31500000C20D37082780369C1689207920F9B1A8A185B
S31500000C300361C260D6E70B884FF600610B43D38190
S31500000C40EFE7C04610B582B0EFF30384103C64B200
S31500000C50200000F04FFE44F2FC33A400C2F2000371
S31500000C60E4580323A2781340022B0DD0236A597946
S31500000C70A369C9B2019183B9636A1BB1042220003A
S31500000C80FFF762FE02B010BD40F2FF11236A1B8A15
S31500000C901940A3690191002BEED09207920F60696B
S31500000CA001A902F05DFDA37862699B079B0FD2182C
S31500000CB06261A269D31AA361002BE3D1636A002B98
S31500000CC0E0D0012200212000FFF73EFEDAE7C04611
S31500000CD010B5EFF3038444F2FC33103C64B2C2F265
S31500000CE00003A200D0587B23026A91780B409370D0
S31500000CF0436A1BB102220021FFF726FE200000F006
S31500000D00F9FD10BD70B5EFF3038444F2FC33103CDB
S31500000D1064B2C2F20003A200D058032382781340C3
S31500000D20022B19D0036A5979C9B238221D792A4093
S31500000D30ED0602D51D7FED070BD538261D79B54387
S31500000D401D71436A0BB1FFF7FFFD200000F0D2FDD5
S31500000D5070BD40252A43F0E740F2FF11036A1A8A64
S31500000D601140E2E7FF2301200B4098404FF6FF7346
S31500000D70034002B91B040022C4F204029446090A85
S31500000D804901614400208B607047C046F0B5DE46DD
S31500000D9057464E464546E0B5EFF31082012383F3EE
S31500000DA0108844F2F83BC2F2000B5B461B6833B96D
S31500000DB040F60051C4F20401CB704033CB705B4661
S31500000DC059461B6801330B6082F3108803880022A2
S31500000DD04BB380235B029946224B40F6000440F257
S31500000DE0FF0C9846C4F204044368D1005B186146C0
S31500000DF09F881E683B0A0F4049461B010E420AD0D7
S31500000E00D91989008A464546095929405546295126
S31500000E10414631402951DB199B001E5101320188A0
S31500000E2093B29942E0D8EFF31082012383F310883E
S31500000E305B461B6823B15B4659461B68013B0B604A
S31500000E405B461B6833B940F60051C4F20401CB700F
S31500000E508033CB7082F31088F0BCBB46B246A946FD
S31500000E60A046F0BDFFFFFEFF45F2542310B5C5F2C4
S31500000E704F0303600800FFF789FF002010BDC0463E
S31500000E8041600272002070474163C26383630020A1
S31500000E907047C0464BF2BD62CAF6B6529446C36866
S31500000EA0002063445A4253410B707047F0B504006A
S31500000EB0806B83B06D4688B12B000200C0CAC0C3E8
S31500000EC0E36B01710360636B9847A36B0BB103CDB2
S31500000ED003C32B230022E25403B0F0BD2800EFE742
S31500000EE04EF2000340F6007230B52C25C4F2010321
S31500000EF01B6A83B00193019BC0F60072134001691F
S31500000F000193019A019C0B7C455DDBB295B91205F4
S31500000F10120F240E121B93409B0823B9082057E09A
S31500000F20013B002BFAD04A78D209002AF8D1B32324
S31500000F30CB71016900232822835482690362C2614E
S31500000F402622845C01328454043283540232835450
S31500000F5001328354013283540132835403685A6A3E
S31500000F6013785278013B5C426341520004331343C9
S31500000F70DBB2CB701021026913790B430821137180
S31500000F80026913798B4313710269083113798B4314
S31500000F9001211371026953790B4353710368DB7B9B
S31500000FA05BB2002B0ADB1F215A094EF200140B40DC
S31500000FB01E399940CEF2000492001151BF220369F6
S31500000FC0DA712C23C25C2AB9036902325A700020F6
S31500000FD003B030BD0022C254F9E7C04610B52A243A
S31500000FE00355037A41618261012B0AD12522002132
S31500000FF081540121426852000A4324214254262288
S31500001000835429230122C254FFF76AFF10BDC0464C
S315000010101F2270B503690D001A70036940321A70F9
S31500001020036980321A70036801695B6A04001A79E1
S3150000103020235B421A43D2B20A7401680269496AE4
S31500001040C9780B43DBB25374036801695B6A9A780B
S31500001050702312011340082213438B7003685A6AE7
S3150000106013785278013B59424B41520004331343E3
S315000010704BF6C052CFF6F07294460169DBB2CB70E4
S3150000108003685B6863445A1E93417F225B42934325
S315000010900269F7335371002203699A7103691120BB
S315000010A0B332DA71697B2856220000F08BFC0F20E0
S315000010B0697B2856220000F085FC1020697B2856A3
S315000010C0220000F07FFC0E202200697B285600F0EB
S315000010D079FC9F2223691A7070BDC04640F23052D7
S315000010E0C0F240029446F8B500250B7801606344CF
S315000010F01B0203618B68040043600B7B0372CB69A0
S3150000110043630B6A8563C363EFF3108C012282F39A
S31500001110108809260F7846F6FC73F61BB240C4F217
S3150000112004035868904358605B688CF3108820006D
S31500001130FFF76EFF29236561A561E5612562E55428
S315000011400133E5540133E5540133E55444F64313C2
S31500001150C5F249230020E360F8BDC04610B52A2435
S315000011600355037A41618261012B08D125220021B2
S315000011708154426824315200425426228354292342
S315000011800022C254FFF7ACFE10BDC04670B5002564
S3150000119003690400DD710168FFF73AFF2623E56164
S315000011A0E25C0233E254A369B32223622C23E554A2
S315000011B0023BE55423690020DA7170BD70B5002545
S315000011C003690400DD710168FFF722FF2623E5614C
S315000011D0E25C0233E254A369B32223622C2311207A
S315000011E0E554023BE5542369DA712369DD7123680E
S315000011F0E560185600F0D4FB0E202368185600F060
S31500001200CFFB10202368185600F0CAFB0F20236876
S31500001210185600F0C5FBEFF31080012383F3108806
S31500001220216846F6FC720C780921091B8B40C4F232
S31500001230040255682B435360536880F310880020DE
S3150000124070BDC04630B583B0EFF30380103840B2AE
S3150000125000F050FBEFF3038344F2FC32103B5BB229
S315000012609B00C2F200029C582D23E35CABB9A36934
S31500001270022B04D84021226913790B431371E369C9
S31500001280012B26D06A462369DB7CDBB2D371D37986
S315000012902D230122E25403B030BDE569002DFAD0BA
S315000012A0032D26D0022D35D0012D28D02369626961
S315000012B0D97C236AD154236A01332362E369013B53
S315000012C0E361002BE7D14021226913798B43137127
S315000012D0E1E71021226913790B4308211371226972
S315000012E013790B4310211371226913798B43137100
S315000012F0C8E74021226913790B431371D6E72A23E5
S31500001300E35CBBB9082221694B7A93434B7223698C
S315000013105A70CBE71021226913790B430821137108
S31500001320226913790B4310211371226913798B43B8
S315000013301371BBE70F202368185600F031FB80239A
S3150000134022695B42D1790B431021D371226913794B
S315000013500B4308211371226913798B431371226998
S31500001360083113798B431371042223695A70226959
S315000013705379AB4353712C23E55497E710B5EFF33C
S315000013800380103840B200F0B5FAEFF3038344F25D
S31500001390FC32103B5BB29B00C2F200029C58272332
S315000013A0E35C002B2FD12923E35C5BBBE269236955
S315000013B0002A39D17F22D9790A40DA712169C022FF
S315000013C001E0013A1AB1CB79DB09002BF9D11020E3
S315000013D02368185600F08EFA102223689A56002ABF
S315000013E00BDB1F215309114001228A404EF20011E6
S315000013F06033CEF200019B005A5040212269D37916
S315000014000B43D37110BD2623E35C032B1AD0242390
S31500001410E25C23699A742822A35C0133A354013A3F
S31500001420A35C013BA354EDE7226A61698A5C9A7466
S31500001430236A01332362E369013BE361002BE1D1B7
S315000014402369B7E72533E35C022BE0D12E33E35C57
S31500001450002BD7D0DBE7C04610B5EFF3038344F289
S31500001460FC32103B5BB29B00C2F200029C5829235F
S31500001470E35C1BB12723E35C012B20D0E3699BB11E
S3150000148040212269D3798B43D3712169C02201E0BF
S31500001490013A12B1CB795B06FAD4EFF30380103828
S315000014A040B200F027FA10BD2A33E35C63B9082284
S315000014B021694B7A93434B7223695A70E0E72F33C5
S315000014C0E35C002BDCD0D9E70F202368185600F028
S315000014D067FA802322695B42D1790B43D3710422D8
S315000014E023695A702169033A4B7993434B712C2334
S315000014F0E254C5E770B5EFF3038344F2FC321F20D4
S31500001500103B5BB2C2F200029B009C582269537AE0
S31500001510517ADDB28143517203221A40DB0625D58A
S3150000152023695978490640D400252B220121A1546C
S31500001530DD7120002168FFF76BFD2623E561E25C83
S315000015400233E254A369B32223622C23E554023BFF
S31500001550E554236901212000DA71FFF7A7FCEFF3B8
S315000015600380103840B200F0C5F970BD002A47D19B
S315000015702B070ED52B23E35C8BBB29230321B32238
S31500001580E35CC91A2369C9B2DA712000FFF78EFC41
S31500001590E5E72C23E35C002BE1D06D07DFD52B2399
S315000015A0E35C002BE9D00121EFE7002ABCD15A7891
S315000015B05206D10F002ADBDA2B22A154233A5A70A5
S315000015C0236801215B6A1B78013B5A425341226919
S315000015D00233D370226953790B435371BFE700235B
S315000015E02621E361605C023122696054A1692162AF
S315000015F02C21635402396354B3330121D371C4E7F8
S31500001600236991E730B583B0EFF3038444F2FC33EA
S31500001610103C64B2C2F20003A200D55846F20003A1
S315000016206A79C4F200039B5C9B079B0F032B0BD1CB
S31500001630AB6823B10192EA68684600929847200099
S3150000164000F058F903B030BD200000F053F9AB6844
S31500001650002BF7D06A7968460192EA6800929847AB
S31500001660F0E7C04670B5C56904000E0088B0A5B1A4
S3150000167020222900684602F073F820223100280053
S3150000168002F06EF82800A3699847E06918B1202295
S31500001690694602F065F808B070BD0D00F2E7C04675
S315000016A030B5040089B0EFF3038344F2FC32103BFB
S315000016B05BB2C2F200029B009D58EFF30380103824
S315000016C040B200F017F96B466A469C706B681B883F
S315000016D01380002313722B6A0193AB691BB1694611
S315000016E02800FFF7BFFF09B030BDC04610B5002087
S315000016F0FFF7D6FF10BDC0464EF20003262244F285
S31500001700D811C4F20103985C1B6A8000C2F2000182
S3150000171041585B015B0F44F28842D940C2F2000295
S31500001720116070474EF2000340F2FE323D49C4F2AA
S31500001730010330B599524CF20001002243F6C870FD
S31500001740C4F27E010A5444F2D81046F60041C2F2B1
S315000017500000C0F2DC21016041F20021C0F27A01F2
S31500001760416048F20001C260026181602632995CE4
S315000017701A6A890041585201520F44F28844D140F6
S31500001780C2F20004216040F2804201219954A02255
S315000017909A5CCAB136229A5C1AB93B315A5CD207B6
S315000017A0FCD54EF20002A021C4F20102535CDB0616
S315000017B0DD0F002BFADB55544EF20002A021C4F2D5
S315000017C00102535CDB06FCD44EF2000200213623F4
S315000017D0C4F20102D1543C31535CDB07FCD5012134
S315000017E03123D1544FF6C473C4F27E03197040F20C
S315000017F0001300251362DA3BD554D55C136AAD009D
S3150000180040595B015B0FD84040F2FE33206006482A
S31500001810D0524CF2000343F6C872C4F27E039954C8
S3150000182030BDC04603A5FFFF00A5FFFF44F200033D
S3150000183028220021C4F20403995470477047C04619
S3150000184000BEFEE701380028FCD1704744F288420A
S315000018504CF6002370B54143C2F200021468C3F689
S315000018609A330D00B3FBF4F4080040F2E83200238B
S31500001870002100F03BFA31B9B0FBF4F0800808B162
S31500001880FFF7E0FF70BDA000B5FBF0F040F2E832D4
S315000018900023002100F02AFA0029F0D0012040425E
S315000018A0FFF7D0FFEEE7C046F8B546F2000340F278
S315000018B0201244F2B83500240127C4F200039E5AD0
S315000018C020329B5AC2F200051E403300E3401F42FD
S315000018D003D02B680BB1E0B2984701340435102CC5
S315000018E0F3D146F2000340F23012C4F200039E52D6
S315000018F0F8BDC04646F20003C0308000C4F20003C3
S31500001900C25802490A40C250C3587047FFFFFEFF43
S31500001910F0B5C64690464EF20012FF240325CEF2DD
S3150000192000029446220040F200370540ED0089018E
S31500001930AA400C40AC4083089B0000B56344DE59C6
S31500001940800096432643DE5144F2FC334246C2F2FF
S3150000195000031A5080BCB846F0BDC046030046F2EC
S31500001960000210B5C033C4F200029B0099580B4C1C
S31500001970214099509B58BFF35F8F1F2201230240DD
S3150000198093404EF20012CEF20002944640F28012CC
S315000019904009800060448350036010BDFFFFFEFFD6
S315000019A01F21012201408A404EF2001143092033D3
S315000019B0CEF200019B005A50BFF34F8FBFF36F8FDB
S315000019C07047C046F0B5C64690464EF20012FF2458
S315000019D00325CEF200029446220040F2003705406D
S315000019E0ED008901AA400C40AC4083089B0000B57D
S315000019F06344DE59810096432643DE5144F2FC33AC
S31500001A004246C2F200035A50030046F20002C033B7
S31500001A10C4F200029B0099580C4C214099509B58E7
S31500001A20BFF35F8F1F220123024093404EF2001244
S31500001A30CEF20002944640F28012400980006044D3
S31500001A408350036080BCB846F0BDC046FFFFFEFF72
S31500001A5046F200000023C4F2000046F65402C0F22B
S31500001A6000029A1812781AB11900C03189000A507A
S31500001A700133202BF1D1704730B5EFF310810123EC
S31500001A8083F3108844F27C434000C2F200031A5AE2
S31500001A901AB11A5A013A92B21A521B5A83B94EF225
S31500001AA0000246F6940340F2FE34C4F20102C0F28C
S31500001AB00003155B185A044B2B4383439BB2135305
S31500001AC081F3108830BDC04600A5FFFF70B5EFF367
S31500001AD01081012383F3108844F27C424000C2F255
S31500001AE00002135A83B94EF2000446F6940540F2FA
S31500001AF0FE36C4F20104C0F20005A35B2D5A2B4347
S31500001B004AF200552B43A353135A01339BB2135287
S31500001B1081F3108870BDC04644F2844210B5C2F20B
S31500001B2000020300106858B1032103338B4344F2CB
S31500001B30D851C318C2F200018B4207D8136010BDFA
S31500001B4044F2D850C2F200001060EDE701F0F4FD57
S31500001B500C23036001204042F1E7C04600BE7047F7
S31500001B6010B500F003F8FEF7C5FEFEE7F0B54EF639
S31500001B70005340F20005CEF20003C0F2000583B028
S31500001B809D600020FEF79EFEFFF7CCFD6B4600270A
S31500001B90DC1D277001202378FFF798FFEFF31081F3
S31500001BA0012686F3108846F6FC73C4F204039A688D
S31500001BB03C4802409A609A6881F3108840F600011A
S31500001BC0C4F204010A68D207D20F22700A68D2074B
S31500001BD0D20F22700A68D207D20F2270EFF310815B
S31500001BE086F3108880229868520502439A609B68A3
S31500001BF081F310880120FFF73FFF0120FEF762FE08
S31500001C0040F60053284AC4F200039F801A802A68CF
S31500001C10264941F2000051189960DA6046F2000246
S31500001C2040F22011C4F20002505244F2D85244F25B
S31500001C30F010C2F20002C2F200009E800021121AC9
S31500001C4001F028FD44F2000044F2D81246F618418D
S31500001C50C2F20000C2F20002121AC0F2000101F044
S31500001C607FFD44F2D01544F2D413C2F20005C2F24D
S31500001C7000035B1B9E10002B05DD002408CD0134FC
S31500001C809847A642FADCFFF737FDFFF7CFFD0220A3
S31500001C90FEF718FEFFF7DCFE0020FFF7CFFD03B0CE
S31500001CA0F0BDC046FFFFFFEF00A5FFFF00FCFFFFF2
S31500001CB01C2101231B04984201D3000C10391B0A76
S31500001CC0984201D3000A08391B09984201D300093A
S31500001CD0043902A2105C40187047C0460403020291
S31500001CE0010101010000000000000000F0B54FF600
S31500001CF0FF750400CE462C40474615400E002900CD
S31500001D00994680B5130C0700000C614345435843C0
S31500001D1063430C0C5B19E4188C46A54203D9802357
S31500001D205B0298464044230C61461B184FF6FF7031
S31500001D300840494656437943240489192018C9188E
S31500001D40C0BCB946B046F0BDF0B5DE46454657467E
S31500001D504E46E0B587B0009201930B031B0B9B46E2
S31500001D604B00CA0F5B0D040080460292002B00D187
S31500001D7092E040F2FF72934239D05946420FC900B1
S31500001D800A43802109041143C2009046894A8946C4
S31500001D9092469A44002300240393009E019F3B032E
S31500001DA01B0B9B467B005B0D3000FD0F002B00D10B
S31500001DB0A6E040F2FF72934200D194E05946720FBA
S31500001DC0C9000A438021090411437A4A0020944637
S31500001DD052466344D31A9A468B46F100029B6B40E7
S31500001DE00F2C00D9F0E0744AA400125997465B46BE
S31500001DF003439946002B00D0A4E0023340F20008CA
S31500001E00082440F2FF7A0393C7E72B0040F2FF72E3
S31500001E10002440F2000812052243DB071A4340461D
S31500001E20110007B0F0BCBB46B246A946A046F0BDBD
S31500001E300022002440F20008EDE7CB464146029D11
S31500001E4003980228E1D0032800D173E22B00012871
S31500001E50EED040F2FF305044002800DCA7E14A07EC
S31500001E6000D07AE25A46D20106D55846534A104067
S31500001E70834640F20040504440F2FE729042C5DC78
S31500001E805A46C90852070A4390465A46540240F237
S31500001E90FF72240B0240BEE75B4603439946002BC4
S31500001EA062D05B46002B00D1DBE15846FFF700FF0E
S31500001EB00B235B429C460200844466461D239B1B03
S31500001EC0260011005846DE40083988403300034397
S31500001ED0994623008B409846394B00249B1A9A4614
S31500001EE00023039359E75946009B1943354B9C46FB
S31500001EF0E244A1BB022340F2000B02201C436DE723
S31500001F005946009B194321B35B46002B00D1BAE129
S31500001F105846FFF7CDFE020003000B3A1D27009E30
S31500001F20BA1A19005846D64008398840320002438A
S31500001F309346009A8A401100534440F2F33A002037
S31500001F409A444BE70323D9460C2440F2FF7A0393C5
S31500001F5023E7012340F2000B01201C433EE7032345
S31500001F60310003201C4339E7012340F20008042412
S31500001F7040F2000A039310E78024002340F2000891
S31500001F80240340F2FF7246E780244B462403234293
S31500001F9008D05B46234205D11C4324032B00884608
S31500001FA0240BEEE780244B4624031C432403029BA8
S31500001FB0240BE6E701FCFFFF9C680000FFFFFFFE25
S31500001FC00DFCFFFF01F8FFFFCB4500D23FE100D13A
S31500001FD03AE101225242944647464A460025E244E7
S31500001FE058460C0E000204430902000CB2FBF0FC3A
S31500001FF000914FF6FF71260021400294644603913A
S315000020004C4361464143521A1204390CA04611430F
S315000020108C4207D9B14662464944013A8E4200D8FD
S3150000202050E194464246891AB1FBF0FB5A46039C9E
S315000020304FF6FF7962435C464443091B4C4609044C
S315000020403C4021438A4208D9029E5C46B046414440
S31500002050671E8E4200D82BE1BB468A1A61465C4653
S315000020604FF6FF7C09040C430099270C090C89469E
S315000020706146A34621406446009E344004944C4386
S315000020802600049C7C43A0464C4661436743340CBF
S31500002090A44641446144884503D980246402A44689
S315000020A067440C0CA0460904474488464FF6FF7166
S315000020B031404144BA4200D2ADE000D1A8E0691AED
S315000020C08D42AD41029ED71B6D427F1BBE4200D1A1
S315000020D034E1B7FBF0F20400039D544355433F1B24
S315000020E03F040C0C2743BD420BD9B046541E47444F
S315000020F0A446BE4200D937E1BD4200D834E1023AD7
S3150000210047447F1BB7FBF0F56843381A4FF6FF7755
S31500002110039C00046C430F40A4460743BC420BD902
S315000021200298691E80464744B84200D91EE1BC4564
S3150000213000D81BE1023D474461467F1A1104049C06
S3150000214029430D0C20006C434FF6FF72A4464C4603
S315000021500A405043624362449046020C424465433F
S31500002160944503D980246402A4466544140CA4460D
S31500002170AC444FF6FF75120428401218674506D383
S3150000218002D00122114364E6002A00D161E6029CD6
S31500002190481EA0464744A74200D2C2E0674500D287
S315000021A0F9E000D103E10100EBE7012149420122F8
S315000021B0121A382A00DD3BE61F2A00DC8CE01F24B9
S315000021C06442201A5C46C4402000202A05D040F212
S315000021D03E425C465244944021434A1E91410722A6
S315000021E001431000002408400A420CD00F220A4086
S315000021F0042A00D1E0E0081D8842924101005242C3
S3150000220050075202140BC90801438846002202E611
S315000022108D4200D353E7012464425C440594009C3C
S31500002220A4466544A542A4416442A446029CA04635
S31500002230C4446244944235D2974200D99BE000D10F
S3150000224096E0059CA3463AE7414500D9C1E64846D3
S31500002250C707404640084A46074340465208C50756
S31500002260BEE6FFF725FD40F2150C844402006346E6
S3150000227020321C2B00DC20E623000838834040F285
S315000022800008994628E6FFF713FD02000300153201
S3150000229020331C2A00DC41E6009A083882400021DF
S315000022A0934649E69442CCD1009CAC42C9D8C3E7D8
S315000022B08A4200D8D0E602246442A046C344B0460F
S315000022C04144CAE6884500D8ABE60222524291460E
S315000022D0CC44B1464944A5E640F21E400D005044A8
S315000022E05C4681408440D54008002C43411E88410D
S315000022F0210001435846D0400200480709D00F206C
S315000023000840042805D0081D8842894149425218D0
S315000023100100100200D473E70122002440F20008F5
S3150000232079E50100674500D02BE70098824200D08E
S3150000233027E78EE580245B4624032DE640F2FF3036
S315000023401E4A5044924500DA2FE701225242111DDF
S31500002350914292415242934484E50F220A40042A54
S3150000236000D17FE50A00F2E76246CAE60D00E3E621
S31500002370A94200D865E702246442A446009CE344CF
S31500002380A4466544A542A4416442A446029CA046D4
S31500002390C444624493E60098029C4500854280410D
S315000023A0A0464042404402393F180095BAE7009CD7
S315000023B09442F0D30100B8E7002221E702FCFFFFB8
S315000023C0F0B5DE464E4657464546E0B589B0009222
S315000023D001930B031B0B9B464B00CA0F5B0D0400BE
S315000023E09146002B00D1CDE140F2FF72934200D11D
S315000023F05FE15946420FC9000A438021090411438F
S31500002400C2009046DC4A8B469C18002300250293A6
S31500002410009E019F3B031B0B9A467B00FA0F5B0D48
S3150000242030000392002B00D183E140F2FF72934209
S3150000243000D169E15146720FC9000A43802109049F
S315000024401143CD4A8A46944600216344F0001B1985
S315000024505C1C0A2D00DD3CE14E46039A5640F2B262
S315000024600092022D00DCB7E1012240F23057AA406B
S3150000247015003A002A402F4200D028E140F24027BA
S315000024802F4200D01BE288222A4200D0FDE14FF6FF
S31500002490FF75414642462940170C0540020C0800CC
S315000024A068438446280016007843804608007E4329
S315000024B0029203963200029E70436646360CB1467F
S315000024C040444844804505D9160080225202904671
S315000024D0464403964FF6FF78060C42460496664637
S315000024E000041640B4460200624405925246120C9D
S315000024F09446404652460E00104046436246B14658
S31500002500060051437E4357434A46B246120C904654
S31500002510514441448E4203D9802252029046474498
S315000025200A0C90464E463A004FF6FF773E40B146BB
S31500002530424406920904049A494490468946C8448E
S31500002540424604925A46120C90465A4617403E009E
S315000025506E43B14646466E43B2464E464546360C37
S31500002560B346029A079155437A4352445A449245D8
S3150000257003D9802149028A465544160CB246554471
S315000025804FF6FF7A494656460E40B146120441467A
S3150000259091443A0046464243484361464E434F43C0
S315000025A0110C8C463F18BC44B046604503D98021C7
S315000025B049028A46D044049903988A46664650449E
S315000025C04FF6FF7A370456461640BA190799069E03
S315000025D088428941B246494252445718BA4648444D
S315000025E04845BF41B24292418A458941AB467F4246
S315000025F049425242B9460A436146D344D944090C7A
S315000026005218B945BF41AB4589417F4249420F4304
S315000026104946D21942445202C90D059D11438B46C3
S31500002620410229434D1EA941C00D084349464902AE
S3150000263008438046D20100D468E1012243080240E3
S3150000264013435A46D207134398465B465B089B469C
S31500002650009B994640F2FF33E118002900DCE4E0D4
S3150000266043465B070AD00F2342461340042B05D08E
S31500002670043242459B4190465B429B445B46DB01EC
S3150000268006D55A463D4B1A4040F200439346E118A0
S3150000269040F2FE73994200DD99E043465A46DB0854
S315000026A052071A435B465C0240F2FF73240B0B4051
S315000026B01CE05B4603439846002B00D0AEE0023395
S315000026C040F2000B082540F2FF740293A0E6009B3F
S315000026D09946029B022B00D179E0032B00D1E4E05E
S315000026E0029B012BB6D100230024002210004A468B
S315000026F01B052343D2071343190009B0F0BCBB46A0
S31500002700B246A946A046F0BD5246009EE3181643BF
S31500002710002E7CD003224E4640F6000C1543039A49
S3150000272064445640F2B200920A2D00DDB3E0032164
S315000027309AE65346009A1343002B60D05346002B6B
S3150000274000D1D3E05046FFF7B3FA020003000B3A7C
S315000027501D27009EBA1A19005046D64008398840EF
S3150000276032000243009892468840054AE31A94468E
S31500002770002163446CE6C04601FCFFFFFFFFFFFE3D
S315000027800DFCFFFF5B46034398468BB35B46002B6D
S3150000279000D199E05846FFF78BFA0B235B429C4623
S315000027A00200844466461D239B1B260011005846E2
S315000027B0DE4008398840330003439B4623008B40A4
S315000027C0984600236A4C0025A41A029320E640F29C
S315000027D0FF730024002289E7013D012D00D956E64A
S315000027E0009B99460229F2D0D3468046029177E7AC
S315000027F0012340F2000B04250024029308E601336E
S315000028001D4340F2000A23000020012120E6022297
S3150000281040F2000A00200221154319E603238046F0
S315000028200C2540F2FF740293F2E501235B1A382B64
S3150000283000DD58E71F2B72DD1F225242521A5946FD
S31500002840D140202B07D040F23E4C5B4664444246C2
S31500002850A3401A4390464246531E9A4107230A4311
S3150000286019000024114013420BD00F231340042BF0
S3150000287076D0131D9342A4411A0064426107640294
S31500002880240BD20800230A4330E7039BD34699461C
S31500002890804602911DE70F2D64D180245B462403F8
S315000028A0234202D05346234234D080245B4642461C
S315000028B024031C432403240B40F2FF7316E78024F1
S315000028C040F200092403F7E7FFF7F2F940F2150C8E
S315000028D084440200634620321C2B00DC62E723009E
S315000028E00838834040F200089B466AE7FFF7E0F9A4
S315000028F002000300153220331C2A00DC28E7020000
S315000029000099083A914000208A462EE7009A1C005A
S3150000291091469FE61C43039B02009946CCE740F292
S315000029201E4C5A4641466444A240D9400A43414699
S31500002930A140481E81415C460A43DC40530709D04A
S315000029400F231340042B05D0131D9342924152428C
S31500002950A4181A00230291D5012300240022C5E6FB
S3150000296000248BE7039BD346994680469DE7C046E5
S315000029700DFCFFFF70B5C0B1C317C5185D40C40F8D
S315000029802800FFF795F940F21E4240F2FF73121A33
S3150000299013400A2814DC02002E00153296400B2242
S315000029A0121AD5402D032D0B03E000240023002529
S315000029B000261B052B43E40723433000190070BD96
S315000029C00B3885402D0300262D0BF2E7F0B51F00CE
S315000029D0002316008BB09F4204DA802109067B187B
S315000029E01F002D23129A149D1370202303229D434A
S315000029F0462D07D02B00453B59424B411099013AD1
S31500002A00CB18109309AB049308AB0393139B009266
S31500002A100293109B320001933B0000F039FF040043
S31500002A20472D1AD1119BDB0710D5109BC3180793AE
S31500002A30002200233000390002F0A6FC08B1079BF3
S31500002A4009933022099B07998B421FD32000099BCB
S31500002A50159A1B1B13600BB0F0BD109BC318079390
S31500002A60462DE5D10378302B0BD100220023300010
S31500002A70390002F089FC20B90123109A9B1A139A97
S31500002A801360139B079A1B68D318D0E7591C09914A
S31500002A901A70D7E7F7B52B230270002901DA4942ED
S31500002AA002334370092926DD6B46DA1D15000A2715
S31500002AB091FBF7F63B007343CB1A30331400013A0F
S31500002AC013700B003100632BF2DCA61E3031831C21
S31500002AD0317032001900954208D80022B54202D35F
S31500002AE009326A44121B9B18181AFEBD1778013268
S31500002AF00F700131EFE7302330318370C170031D51
S31500002B00F2E7FFFFF0B597B00D000A921C9C0B93FD
S31500002B10099000F0C7FD036818000D9300F029FE28
S31500002B2000230F9014932B7E07220C932B680E9391
S31500002B300E992368C90542D59B1893431A0008329B
S31500002B40226001221E685F687B005B081193109665
S31500002B50AE64EF6410981199A54B524203F0B6FC8F
S31500002B6000282ED1109811990122A14B524202F051
S31500002B701BFC30BB002200233000390002F00AFCA7
S31500002B8018B12B002D2243331A700C9B472B2AD8E1
S31500002B90984F032300240E9A2B6101339A432A602F
S31500002BA00B9B2900009309980A9B15AA00F0E2F9ED
S31500002BB0013000D09EE00120404217B0F0BD07333F
S31500002BC0BBE732003B003000390003F07FFC70B1F8
S31500002BD0002F03DA2B002D2243331A700C9B472B50
S31500002BE003D8854FD5E7854FD3E7854FD1E7202218
S31500002BF00C9C6B6894435A1C46D107336B6040F2B9
S31500002C0000430E9A0AA9134300222B60069214AAC7
S31500002C1005920C9A0193049213AA03922322521846
S31500002C2002926B683200009309983B00FFF7CEFED4
S31500002C30139A0700472C2DD1D31C02DB6B689A42EE
S31500002C4045DD0C9B023BDBB20C93280013990C9AD2
S31500002C50013950301391FFF71DFF149A0400131821
S31500002C602B61012A02DC2A68D20701D501332B61C8
S31500002C7023230AAA9B181B78002B00D190E72B0070
S31500002C802D2243331A708BE7472CB8D1002BB6D1CF
S31500002C900133B3E70C9B652BD7D90C9B662B18D158
S31500002CA06B68002A08DD2A6113B92968C9070AD5A5
S31500002CB001339B182B6106E01BB9012229681142DA
S31500002CC000D09A1C2A61139B0024AB65D0E76723CA
S31500002CD00C931399149B994206DB2B682961DB0739
S31500002CE0F1D501312961EEE701220029E1DC9218D4
S31500002CF0521ADEE72A68530508D42B693A000A9966
S31500002D0009980B9CA047013028D154E70C9B652BF2
S31500002D1000D8DAE0A86CE96C0022002302F034FB4C
S31500002D2098B30123374A0A9909980B9CA0470130AA
S31500002D3000D140E7149E139BB34202DB2B68DB07EE
S31500002D400CD50B9C0F9B0D9A0A990998A047002455
S31500002D50013000D12FE7731EA3420ADC2B689B07C4
S31500002D6000D505E1159BE868984200DB25E71800C9
S31500002D7023E72A0001230A9909980B9F1A32B847BC
S31500002D80013000D117E70134E5E7139B002B3BDC4C
S31500002D9001231C4A0A9909980B9CA047013000D1CF
S31500002DA009E7149E139B334313B92B68DB07D5D56C
S31500002DB00F9B0D9A0A9909980B9CA0470023013096
S31500002DC000D1F8E60C93139B0C9A5B42934201DC0C
S31500002DD0330093E72A0001230A9909980B9C1A32BB
S31500002DE0A047013000D1E6E60C9B0133EAE7C04676
S31500002DF0FFFFEF7FDC680000E4680000E068000089
S31500002E00E8680000EC680000149BAE6D0C939E42CF
S31500002E1000DD1E00002E31DCF3430024DB173340B7
S31500002E200E93AE6D0E9BF31AA34230DC139B0C9AE5
S31500002E309A4238DC2B68DB0735D4139C0C9B0C9A22
S31500002E409B1B141B9C4200DD1C00002C34DCE3435E
S31500002E500026DB171C40139B0C9AD31A1B1BB3428C
S31500002E6000DC7BE72A0001230A9909980B9F1A3296
S31500002E70B847013000D19EE60136ECE733003A0050
S31500002E800A9909980B9CA0470130C5D193E62A0000
S31500002E9001230A9909980B9E1A32B047013000D1D6
S31500002EA089E60134BDE70F9B0D9A0A9909980B9C98
S31500002EB0A0470130C1D17EE6BA1923000A990998C4
S31500002EC00B9EB0470130C2D175E6149B0C93012BC3
S31500002ED002DC01231A4238D001233A000A990998E4
S31500002EE00B9EB047013000D165E60F9B0D9A0A99FB
S31500002EF009980B9EB047013000D15CE6A86CE96CDE
S31500002F000C9B0022013B0C93002302F03DFAD0B942
S31500002F100C9B7A1C0A9909980B9EB04701300ED17A
S31500002F2049E62A0001230A9909980B9F1A32B847E5
S31500002F30013000D13FE601360C9B9E42F1DB2A00B0
S31500002F4023005032DBE60026F6E73A00E2E72A00E5
S31500002F5001230A9909980B9E1932B047013000D116
S31500002F6029E60134EB68159A9B1AA342EFDCF9E6D1
S31500002F700024F7E7F7B5160001938A680B690C0081
S31500002F800090934200DA1300220033604332127835
S31500002F900AB10133336023689B0602D533680233D6
S31500002FA033602268062315001D401A4227D02300ED
S31500002FB043331B785A1E93412268920630D422006E
S31500002FC001990098089D4332A847013025D0062272
S31500002FD0236800251340042B05D13368E568ED1AF4
S31500002FE0EB43DB171D40A3682269934201DD9B1A60
S31500002FF0ED180026B54220D1002010E00135E36827
S3150000300032689B1AAB42D2DD220001230199009857
S31500003010089F1932B8470130F0D101204042FEBD69
S315000030203020E1184331087021005A1C45310978D7
S31500003030A218433202331170C1E72200012301991D
S315000030400098089F1A32B8470130E6D00136D1E71A
S31500003050F0B50E0089B00492039005930C00097E2A
S315000030600E9A4336782907D8622909D8002900D153
S31500003070B7E0582900D1A0E025004235297022E0AA
S31500003080080063381528F7D802F064F916001F0007
S31500003090F6FFF6FFF6FFF6FF1F00F6FFF6FFF6FF58
S315000030A0F6FF9E0034004300F6FFF6FFAF00F6FF82
S315000030B03400F6FFF6FF4700250013684235191D58
S315000030C01B6811602B7001239CE013682068191D92
S315000030D0050609D51B681160002B02DA2D225B421A
S315000030E032700A225B4832E01B6811604006F3D555
S315000030F01BB2F1E71068256808C82F0602D46D06D2
S3150000310000D59BB21060082252486F291BD00A22B4
S3150000311019E0202321680B43236078214E482300C1
S31500003120453319701568216808CD0F0602D44F067D
S3150000313000D59BB21560CA0702D520220A43226039
S31500003140002B3CD010222100002543310D70616810
S31500003150A160002908DB40F2040C67462568194384
S31500003160BD432560350061B13500B3FBF2FC614615
S315000031705143591A415C013D2970190063468A4240
S31500003180F3D9082A09D12368DB0706D562682369C3
S315000031909A4202DC3023013D2B70761B2661059B8B
S315000031A0210000930398049B07AAFFF7E3FE013072
S315000031B02CD10120404209B0F0BD2648AFE72021BE
S315000031C022688A432260BDE713682568181D616975
S315000031D010601B682F0601D5196002E06D06FBD54D
S315000031E01980002335002361D9E71368191D116082
S315000031F01D6800212800626800F0A7FA08B1401B8C
S3150000320060606368236100233370C8E72A0023697E
S3150000321004990398059DA8470130CAD023689B07E7
S3150000322015D4079BE0689842C5DA1800C3E7220068
S31500003230012304990398059E1932B0470130B8D08E
S315000032400135E368079A9B1AAB42F0DCE9E70025F3
S31500003250F7E7C046EE680000FF680000002310B5DF
S31500003260040003604360836081814366C281036119
S3150000327043618361190008225C3000F00BFA0B4BA6
S31500003280246263620A4BA3620A4BE3620A4B23631E
S315000032900A4B9C4205D00A4B9C4202D0094B9C42E9
S315000032A003D12000583000F04DFA10BDD134000093
S315000032B0F9340000313500005D3500008C440020F3
S315000032C0F44400205C45002010B5034A0349044835
S315000032D000F06AF810BDC04608400020C550000046
S315000032E01840002041680B4B10B50400994201D0EC
S315000032F001F0E8FEA168084B994202D0200001F0D7
S31500003300E1FEE168054B994202D0200001F0DAFEA9
S3150000331010BDC0468C440020F44400205C450020CB
S3150000332010B5094B094A04211A6009480022FFF723
S3150000333095FF012209210748FFF790FF022212217B
S315000033400548FFF78BFF10BDC4450020C9320000B9
S315000033508C440020F44400205C45002010B502484F
S3150000336000F0F1F910BDC046CD45002010B5024869
S3150000337000F0EAF910BDC046CD45002010B50400A6
S31500003380FFF7ECFF236A13B1FFF7F0FF10BD044B04
S315000033902362044B1B68002BF6D1FFF7C1FFF3E74E
S315000033A0E5320000C4450020F7B514000026009061
S315000033B00191A5686768013F04D52468002CF8D1FF
S315000033C03000FEBDAB89012B08D90E22AB5E01335E
S315000033D004D029000098019B984706436835EAE720
S315000033E00FB407B5054904AB086804CB816801939F
S315000033F001F0D0FC03B008BC04B01847144000200C
S3150000340010B5034B01001868826801F0EBFE10BD91
S3150000341014400020036A70B505000E0084680BB9DD
S31500003420FFF7ACFF636EDB0705D4A3899B0502D4C7
S31500003430A06D00F088F9A3891B0701D52369F3B9AC
S315000034402100280000F0CEF8C8B101256D42636E58
S31500003450DB0705D4A3899B0502D4A06D00F074F99F
S31500003460280070BD0136A360002B04DAA2699A42D7
S3150000347016DC0A2914D023685A1C22601970A36826
S315000034803178013B0029EDD1A360002B0FDA220031
S3150000349028000A3100F068F80130D6D00A25D6E7B0
S315000034A02200280000F060F80130E8D1CDE723685B
S315000034B05A1C22600A221A70F0E7FFFF10B5034B70
S315000034C001001868FFF7A6FF10BDC0461440002093
S315000034D070B50C000E25495F00F00AF9002803DBE1
S315000034E0636D1B18636570BDA389024A1340A381EF
S315000034F0F9E7C046FFEFFFFFF8B51F008B8905000F
S315000035000C001600DB0505D50E23C95E002202233A
S3150000351000F0DCF8A389054A28001340A381320095
S315000035200E23E15E3B0000F0F5F8F8BDFFEFFFFF6C
S3150000353070B50C000E25495F00F0C8F8A389421C3F
S3150000354003D1054A1340A38170BD41F20002134323
S31500003550A3816065F8E7C046FFEFFFFF10B50E23B5
S31500003560C95E00F0A3F810BDF8B506000D00140002
S3150000357018B1036A0BB9FFF701FFA369A360A3891A
S315000035801B0701D5236943B92100300000F02AF852
S3150000359018B101256D422800F8BD23692068EFB2F5
S315000035A0C01A6369EDB2834205DC2100300001F0E8
S315000035B089FD0028EDD1A3680130013BA360236893
S315000035C05A1C22601F706369834204D0A389DB07FB
S315000035D0E1D50A2DDFD12100300001F073FD00286E
S315000035E0D9D0D6E72A4B70B5050018680C0018B17B
S315000035F0036A0BB9FFF7C2FE0C22A35E1A0722D498
S31500003600DA0607D409222A60402201201343A38147
S31500003610404237E05B0712D5616B41B1230044336A
S31500003620994202D0280000F009FF00236363242298
S31500003630A3899343A381002363602369236008233E
S31500003640A2891343A38123695BB940F2802140F22A
S315000036500022A3890B40934203D02100280001F0E9
S3150000366083FD0C22A35E01211A000A400B420AD0F8
S315000036700022A26062695242A261226900200AB950
S315000036801A06C1D470BD990700D46269A260F4E736
S315000036901440002003008218934200D1704719702D
S315000036A00133F9E70048704754410020002370B504
S315000036B0054D040008002B6002F080FF431C02D178
S315000036C02B6803B1236070BDC845002070B50400A7
S315000036D0080011001A000023044D2B6002F08AFF37
S315000036E0431C02D12B6803B1236070BDC84500207E
S315000036F070B50400080011001A000023044D2B6069
S3150000370002F082FF431C02D12B6803B1236070BD17
S31500003710C845002070B50400080011001A000023F7
S31500003720044D2B60FDF764F8431C02D12B6803B1EE
S31500003730236070BDC8450020014B18687047C0461D
S3150000374014400020704770477047C9B282189042F3
S3150000375001D10020704703788B42FBD00130F6E799
S31500003760002310B59A4200D110BDCC5CC45401337D
S31500003770F8E70023C25C0133002AFBD1581E7047CC
S31500003780F0B503690C69050089B00020A3426ADB25
S315000037900B00013C1433A00004931B1805932B0067
S315000037A0143318180193059B02681B680133B2FB9A
S315000037B0F3F602969A422FD3019B049F9C46002360
S315000037C00393079308CF029A9EB25643039A1B0CA3
S315000037D0B618029A5343320C9B181A0C039262468F
S315000037E01268B6B206926A46128B9BB2921B079E6D
S315000037F09219069E360CF31A16149E193314079363
S31500003800634692B23604324304C39C46059BBB42D0
S31500003810D8D20368002B2BD0280001F085F90028A8
S3150000382020DB0027019E0499336801C903936B4688
S315000038309B8982B29A1A039BD219000C1B0C1B1A85
S3150000384010141B181F1492B21B041A43059B04C6BE
S315000038508B42E9D2019AA300D3181A688AB1029B57
S3150000386001330293029809B0F0BD036823B9013C05
S31500003870019B04388342F8D32C61CDE71A6822B93C
S31500003880013C019A043B9A42F8D32C61E7E7FFFF1B
S31500003890F0B514001D00C6699DB00A940B95259FCE
S315000038A003907EB9102000F011FE039B0200D86140
S315000038B020B9EF21BF4BC048FDF7C2FF46608660C6
S315000038C00660C660039BDB69196859B15A68012313
S315000038D093404A608B60039800F0F4FE0022039B3D
S315000038E0DB691A60002D19DA01233B606B005B0867
S315000038F00B930B9FB14BB14A3B4093421DD142F211
S315000039000F73249A13603B031B0B2343002B01D137
S3150000391000F069FD269B63B9A94B23E000233B60B9
S31500003920E7E7A84B0893A84B269A136008981DB0A2
S31500003930F0BDA34B0893A54BF6E70A9A0B9B129290
S315000039401393129813990022002301F01DFD06001F
S3150000395050B10123249A1360269B13B19C4B269ADF
S3150000396013609C4B0893E1E71AAB01931BAB0093E2
S315000039700398129A139B01F089F97A00520D05906B
S31500003980002A79D0139B18961903934B090B0B4306
S31500003990924957181298139919000022904B02F079
S315000039A0C3F9904A904BFEF70BFD904A904B01F0FD
S315000039B019FD040038000D00FEF7DCFF8D4A8E4B22
S315000039C0FEF7FEFC02000B002000290001F00AFDB4
S315000039D004000D0002F096FD002204900023200052
S315000039E0290001F0D7FC58B10498FEF7C3FF2B005D
S315000039F0220001F0C9FC43425841049B1B1A049360
S31500003A0001231593049B162B0FD8129813997B4A02
S31500003A10DB009B181A685B6801F0BCFC002849D0E3
S31500003A20049B013B04930023159300221A9B0992E1
S31500003A30DB1B5A1E40D50122D31A099300230E938D
S31500003A40049B002B3ADB049A0E9B944663440E9328
S31500003A50002314920F93229B0124092B62D8052B75
S31500003A6002DD0024043B2293229B981E032863D880
S31500003A7001F066FC54563A2D1B9B1A9EF61840F22E
S31500003A803243F218202A10DD40239B1A9F4040F251
S31500003A901243F318DC403800204302F06BFD01228C
S31500003AA0574B771ECB18189276E7202320009B1AD7
S31500003AB09840F2E71590B8E70E92C1E7099B049A81
S31500003AC09B1A099353420F9300231493C3E70123D0
S31500003AD0239A10939446049B6344069301330C93F4
S31500003AE0002B08DC012306E001231093239B002B07
S31500003AF026DD06930C93039A0021D0690422150053
S31500003B0014359D4221D94160039800F09BFD089031
S31500003B10F0B9020040F2AF113A4BCCE60023E4E7DD
S31500003B200023D5E7002310942293013B002206933D
S31500003B300C9313332392DEE701231093023BF5E740
S31500003B4001231A0006930C93F4E701315200D6E7DD
S31500003B50039B089ADB691A600C9B0E2B00D9D1E0F7
S31500003B60002C00D1CEE0049B002B60DD0F22234900
S31500003B701340DB005B181E685F68049B02241D115E
S31500003B80DB050AD5129813991F4B15401A6A5B6A12
S31500003B90FEF7DAF80A900B9101341B4B0D93ADBB7F
S31500003BA00A980B9932003B00FEF7CEF80A900B916B
S31500003BB057E0C0461D690000346900000000F07F30
S31500003BC01969000010690000186900001C690000EE
S31500003BD0ED680000EC6800000000F03F01FCFFFF0C
S31500003BE00000F83F61436F63A787D23FB3C8608B7D
S31500003BF0288AC63FFB799F501344D33F486A00008A
S31500003C00000010FE8D690000206A000001231D429D
S31500003C1009D0E4180D9B30001A685B683900FEF77E
S31500003C20CFFB06000F000D9B6D100833B6E7049B13
S31500003C300224B3B1129813995D420F23D34A2B4045
S31500003C40DB009B181A685B68FEF7BAFB01270023A6
S31500003C500A900B91CE4E2D11002D00D093E0002B33
S31500003C60A4D10A9E0B9F159B002B00D196E0002243
S31500003C7030003900C74B01F08DFB002800D18DE0E4
S31500003C800C9B002B00D189E0069B002B36DD049BA4
S31500003C900022013B0D933000BF4B3900FEF790FB2D
S31500003CA00A900B91069B013420001193FEF762FEE9
S31500003CB00A9A0B9BFEF784FBB84B002201F092FB9D
S31500003CC0B74B0600CF18119B002B6BD10A980B99A6
S31500003CD00022B44B02F028F832003B0004000D002D
S31500003CE001F06CFB002800D0A8E2802109067B18B1
S31500003CF032002000290001F04DFB40BB129B139CB3
S31500003D000A930B941B9B002B00DA71E1049A0E2A8E
S31500003D1000DD6DE1D3009D4A9B185C681B68069325
S31500003D200794239B002B00DBE6E00C9B002B00DDB9
S31500003D30E2E063B90698079900229A4BFEF740FB2A
S31500003D400A9A0B9B01F044FB002800D179E2002679
S31500003D503700239B089CDB430D9304970027310013
S31500003D60039800F0AFFC049B002B00D1BAE02FB102
S31500003D709F4203D03900039800F0A4FC04990398ED
S31500003D8000F0A0FCAEE03D4205D032687368FEF755
S31500003D9017FB3B0001346D1008365DE7049B0D935D
S31500003DA00C9B81E7119B794A013BDB0010999B181C
S31500003DB01A685B6800294CD000207B49FDF7C4FFD8
S31500003DC032003B0001F0B0FF089A060094460F004F
S31500003DD0089B1693119B634411930A980B9902F062
S31500003DE091FB0500FEF7C6FD02000B000A980B9931
S31500003DF001F09AFF169B30355C1C1D7032003B00AB
S31500003E000A900B9101F0C6FA00286BD10A9A0B9B17
S31500003E100020604901F088FF32003B0001F0BAFA49
S31500003E20002800D0C4E0119BA34200D166E700221F
S31500003E3030003900584BFEF7C3FA002206000F0087
S31500003E400A980B99544BFEF7BBFA16940A900B91FD
S31500003E50C3E730003900FEF7B3FA089D119A2B002C
S31500003E60944616901791634419930A980B9902F099
S31500003E7049FB0400FEF77EFD0B0002000A980B9931
S31500003E8001F052FF3034199B2C70013506000F00EB
S31500003E90AB422AD116981799089B119C9C46002282
S31500003EA0414B644401F09EFA02000B0030003900D9
S31500003EB001F084FA002800D07AE0169A179B0020B9
S31500003EC0394901F031FF02000B003000390001F0E2
S31500003ED061FA002800D111E72300013C2278302A3C
S31500003EE0FAD01C000D9B049340E000222A4BFEF7FB
S31500003EF067FA0A900B91B8E70C9B089D013B5B198A
S31500003F000C930A9E0B9F069A079B30003900FDF71B
S31500003F101BFF02F0F7FA0990FEF72CFD069A079BA5
S31500003F20FEF74EFA02000B003000390001F0FCFEED
S31500003F302B00099A013530321A700C9A2C009A42DD
S31500003F4049D102000B0001F04DFA069A079B0600C4
S31500003F500F0001F033FA48BB069A079B3000390080
S31500003F6001F012FA10B1099BDD071FD405990398D9
S31500003F7000F0A8FB00232370049B249A01331360EE
S31500003F80269B002B00D1D1E41C60CFE4486A0000D8
S31500003F90206A00000000F03F0000244000001C40A2
S31500003FA00000C0FC000014400000E03F049B0D939D
S31500003FB023001C00013B1A78392A08D1089A9A4234
S31500003FC0F7D10D9A089901320D9230220A701A78AB
S31500003FD001321A7086E70022C04BFEF7F1F9002283
S31500003FE0002306000F0001F0CFF900288BD0BDE7B3
S31500003FF0109F0F9D099CAFB1229A012A00DDDDE0DA
S31500004000189A002A00D1D3E040F233429B18099A4D
S315000040100121D21809920E9A0398D3180E9300F034
S3150000402003FC070074B10E9B002B0BDD0E9A2300D8
S31500004030944200DD1300099AE41AD21A09920E9AE4
S31500004040D31A0E930F9BF3B1109B002B00D1CDE03A
S3150000405085B139002A00039800F0A4FC059A0100F6
S315000040600700039800F0F6FB06000599039800F098
S3150000407029FB05960F9B5A1BAB4204D00599039862
S3150000408000F090FC05900121039800F0CDFB149BF5
S315000040900600002B00D1AEE11A000100039800F0E3
S315000040A081FC229B06000025012B13DC0A9B0025C0
S315000040B06BB90B9B1B0353B9894B0B9A134206D062
S315000040C0099B0135013309930E9B01330E93149B13
S315000040D0012043B1336903339B00F318586800F09D
S315000040E055FB2023181A0E9B181802001F231A408E
S315000040F0184200D180E001339B1A042B78DD1C2383
S315000041009B1A099AE418D21809920E9AD3180E939C
S31500004110099B002B05DD1A000599039800F09AFC0F
S3150000412005900E9B002B05DD31001A00039800F068
S3150000413091FC0600159B002B60D03100059800F01D
S31500004140F3FC00285ADA049B0A22013B0D930599D9
S315000041500023039800F0D8FA109B0590002B00D19D
S3150000416050E1002339000A22039800F0CDFA069B9D
S315000041700700002B4CDC229B022B45DD069B002B07
S3150000418000D0E6E531000522039800F0BDFA0600EE
S315000041900100059800F0C8FC002800DCD9E5089B62
S315000041A0089A5C1C312313700D9B01330D93D4E5E3
S315000041B036231A9A0F9D9B1A099C28E70C9B5D1EB5
S315000041C00F9BAB4208DB5D1B0C9B002BF4DA099BB3
S315000041D00C9A9C1A00231AE70F9B149AEB1AD31811
S315000041E014930F95099C00250C9B10E70F9A45E741
S315000041F0042B8DD01C3384E71300FBE7049B0D933F
S315000042000C9B0693002BB6DD109B002B00D1FDE026
S31500004210002C05DD39002200039800F01BFC070086
S31500004220049705B37968039800F00CFA040060B9A6
S31500004230020040F2EF212B4BFFF73DFB119E3700AA
S31500004240ADE7049B0C9E0D93F9E739003A690C31F2
S31500004250023292000C30FFF783FA01222100039804
S3150000426000F0F8FB0490089B069A0993013B9B1803
S3150000427001220F930A9B13400E9331000598FFF716
S315000042807FFA390005000C90059800F04DFC049A61
S315000042900A903100039800F063FC0122C368040011
S315000042A03035069223B90100059800F03DFC0690D2
S315000042B02100039800F006FA099B229A5C1C069BD3
S315000042C013430E9A13437BB9392D29D00A9B002B31
S315000042D001DD0C9D3135099B1D7040E50000244031
S315000042E00000F07F8D6900000A9B002B04DB229AF8
S315000042F013430E9A1343FBB9069B002BEBDD05997E
S315000043000122039800F0A6FB3100059000F00CFC9A
S31500004310002803DC0028DED1EB07DCD5392DD8D107
S315000043203923099A137023001C00013B1A78392A95
S3150000433050D001321A7012E5069B002B03DD392D91
S31500004340EED00135C7E7099B099A1D700F9B934272
S315000043502BD000230A220599039800F0D5F9049B77
S3150000436005909F4209D1390000230A22039800F0E4
S31500004370CBF90700049009947FE7390000230A224D
S31500004380039800F0C1F9002307000A220499039854
S3150000439000F0BAF90490EEE7069B0124002B00DD3D
S315000043A01C0004970027089B1C19059901220398F5
S315000043B000F050FB3100059000F0B6FB0028B2DC9F
S315000043C008B9ED07AFD423001C00013B1A78302A48
S315000043D0FAD0C4E4089A9A42A6D10D9B01330D93F4
S315000043E031231370BBE4269B002B01D0FFF799FA0B
S315000043F0114BFFF7B7FA229B012B00DC56E6012092
S31500004400149D70E6069B002B00DCB4E60024310008
S315000044100598FFF7B5F9089B30301855069B01340F
S315000044200500A342B8DD00230A220599039800F08F
S315000044306BF90590EBE7C0461069000070B5050002
S315000044400C0079B1043C2368002B00DAE41828003C
S3150000445000F0E8F81C4A13682BB963601460280062
S3150000446000F0E8F870BDA34208D9206821188B42F5
S31500004470F3D119685B6809182160EEE71A005B68DA
S315000044800BB1A342FAD911685018A0420BD120688B
S315000044900918501811608342E1D118685B68411809
S315000044A011605360DBE7A04202D90C232B60D6E7EC
S315000044B0206821188B4203D119685B6809182160AE
S315000044C063605460CBE7C046D445002010B5034B6B
S315000044D00100186800F026F810BDC0461440002000
S315000044E070B50F4E0D003168040011B900F0D0FE12
S315000044F030602900200000F0CBFE431C03D10125CB
S315000045006D42280070BD0323C51C9D43A842F8D008
S31500004510291A200000F0BCFE0130F2D1EFE7C046B8
S31500004520D0450020F7B50322CB1C93430833050082
S315000045301F000C2B34D20C27B94233D8384E280032
S3150000454000F070F833681C00002C2FD139002800C9
S31500004550FFF7C6FF0400431C5FD134680094009B3C
S31500004560002B4AD1002C52D023682800E31800996A
S31500004570019300F08DFE019B834248D123682800F9
S31500004580FF1A3900FFF7ACFF013040D02368DB1972
S31500004590236033685A68002A33D1009B336019E0E0
S315000045A0002BC9DA0C232B600020FEBD2168C91B35
S315000045B020D40B290AD9E2192760A34204D132601C
S315000045C063681160536005E05A60F9E76268A342C8
S315000045D00ED13260280000F02DF8200007220B30A3
S315000045E0231D9043C21A9842DFD01B1AA350DCE762
S315000045F05A60EFE723006468A6E7009C63680093AF
S31500004600ADE71A005B68A342FBD10023DAE70C236F
S3150000461028002B6000F00EF8C6E70760DAE7C04610
S31500004620D445002010B50248FFF78DF810BDC046EE
S31500004630CC45002010B50248FFF786F810BDC046ED
S31500004640CC45002070B5C56906000C0075B9102070
S31500004650FFF73CFF0200F06120B96B21174B1848A9
S31500004660FDF7EEF8456085600560C560F569EB68A5
S315000046708BB1F369A200DB689B181868B8B90121F1
S315000046800D00A5406A1D3000920000F011FE60B1D9
S31500004690446085600DE021220421300000F008FE10
S315000046A0F369E860DB68002BE3D1002070BD026887
S315000046B01A6000230361C360F8E7C0461D69000065
S315000046C09E69000070B5C66905000C0076B9102019
S315000046D0FFF7FCFE0200E86120B98F21084B09486C
S315000046E0FDF7AEF8466086600660C6603CB1EB69D1
S315000046F06268DB6892009B181A6822601C6070BDB5
S315000047001D6900009E690000F7B50F0001900C00BE
S315000047101E0000200D6914373B68013099B25143E1
S315000047201B0C534389190E0C9B191E0C89B21B04D2
S315000047305B1808C78542EFDC16B3A368AB4219DCE9
S31500004740616801980131FFF77DFF070028B9020073
S31500004750BA210C4B0C48FDF773F8210022690C3185
S31500004760023292000C30FEF7FBFF21000198FFF7A2
S31500004770A9FF3C002B1D9B00E31801355E602561F7
S315000047802000FEBD8D6900009E6900004FF6FF7295
S3150000479003000020934201D81B04103080225204EB
S315000047A0934201D208301B0280225205934201D265
S315000047B004301B018022D205934201D202309B00B5
S315000047C0002B03DB0130134200D120207047036821
S315000047D0010007221800104013420DD0063A0020AF
S315000047E0134205D10230034203D0D34010000B60C0
S315000047F070479B080B60FBE79AB20AB910201B0CA6
S31500004800DAB20AB908301B0A1A0701D104301B09AB
S315000048109A0701D102309B08DA07EBD45B08013016
S31500004820002BE7D12020E3E710B50C000121FFF7AC
S3150000483009FF30B9020040F24511044B0448FCF769
S31500004840FFFF01234461036110BDC0468D6900006E
S315000048509E690000F0B514000A6923690D0089B04D
S315000048609A4202DB23000C001D0027692E6961684D
S31500004870BB190093A368BA19934200DA0131FFF716
S31500004880E1FE844630B9020040F26211434B4448CF
S31500004890FCF7D6FF0200BB1914329B00D318019314
S315000048A0002113000198834228D32300BF0014334C
S315000048B004931435DB19B6000293AB19079304234E
S315000048C00593230002991533994205D30C1B153C19
S315000048D0A4080134A3000593079B9D4210D3009BB7
S315000048E0002B05DD019B043B01931B68002B51D077
S315000048F063466046009A1A6109B0F0BD02C3D1E76B
S315000049002C68A4B2FCB100231700049E039308CEC2
S31500004910396806936B461B8B88B263431B18039852
S31500004920090C1B180698000C60434018190C411816
S31500004930080C9BB209041943029B039002C7B342B9
S31500004940E5D8059BD0502C68240C04B30021100038
S315000049501368049E03913168076889B261433F0C6E
S31500004960C919039F9BB2C9190F041F43076080CE64
S3150000497043683F0C67439BB2090CFB185B18190C84
S31500004980039102990430B142E5D805995350043594
S315000049900432A1E7009B013B0093A0E78D6900006C
S315000049A09E690000F7B50323150007000E001A40A4
S315000049B01D4208D02449013A920052580023310082
S315000049C0FFF7A2FE0600AD10DDB3FC697CB910202E
S315000049D0FFF77CFD0200F86128B940F2B3111B4BCA
S315000049E01B48FCF72DFF446084600460C460FB69CB
S315000049F09C6801934CB940F271213800FFF714FF0F
S31500004A00019B040098600023036001231D420AD025
S31500004A10310022003800FFF71DFF310001903800F9
S31500004A20FFF750FE019E6D105DB1206838B9220077
S31500004A3021003800FFF70EFF00232060036004000A
S31500004A40E3E73000FEBDC046146A00001D690000A1
S31500004A509E690000F0B50C0016002369571185B059
S31500004A60FB180193013300934968A3680290009AEA
S31500004A7093420FDB0298FFF7E5FD002301000500D6
S31500004A801A00143160B9020040F2DE11244B2548A9
S31500004A90FCF7D6FE01315B00E9E798000A500133C6
S31500004AA0BB42FADBFB43DB171F40BF0023001F207E
S31500004AB0C91937002269143392009A180740064232
S31500004AC028D00130C01B03908C4600201E68BE40D3
S31500004AD00643604640C08446039E01CBF0409A429E
S31500004AE0F4D8260015360423B24204D3131B153B13
S31500004AF09B0801339B00C85010B1019B0233009301
S31500004B00009B0298013B21002B61FFF7DBFD28008B
S31500004B1005B0F0BD01CB01C19A42FBD8F0E7C04613
S31500004B208D6900009E69000030B50B6904690200BA
S31500004B30E01A9C420FD114329B0014311400C9189C
S31500004B40D218043A043915680B689D4204D0012036
S31500004B509D4200D2023830BD9442F2D3FBE7FFFFFC
S31500004B60F0B50C0087B00090110020001700FFF789
S31500004B70DBFF050088B901000098FFF763FD02001E
S31500004B8028B940F237213F4B3F48FCF759FE012335
S31500004B9045610361100007B0F0BD0026B04203DA9C
S31500004BA023003C001F00013661680098FFF74AFDAC
S31500004BB0020018B940F24521324BE5E72369143467
S31500004BC000939B00E318210001943C0002933B698B
S31500004BD014349B00E31803930300C6608C46002040
S31500004BE0143304930593634620CBA9B20E009C466A
S31500004BF008CC2D0C99B2711A09181B0C0814EB1A63
S31500004C001B18181489B21B041943059B02C305938C
S31500004C10039BA342E7D83900039C153104238C4239
S31500004C2004D3E31B153B9B0801339B000199CD1868
S31500004C3004992E00CB181F0002998E4210D3029CB5
S31500004C40E91E00208C4204D321000331491B890848
S31500004C5088001B18043B196881B1009B136199E712
S31500004C60844602CE88B2604400140C0C04196144D8
S31500004C70201489B22404214302C7DDE700990139D3
S31500004C800091E7E78D6900009E690000F7B50121F4
S31500004C9016001F00FFF7D6FC040030B9020040F2F0
S31500004CA00F31234B2348FCF7CBFD7D003B036D0DF5
S31500004CB01B0B15B180225203134301931EB36846A2
S31500004CC00096FFF784FD019B0099D0B120221E00BB
S31500004CD0121A96403200C3400A4362610193019E54
S31500004CE0A661731E9E4101362661A5B13526124B7B
S31500004CF0ED18089B2D181D60099B361A1E602000B2
S31500004D00FEBD6161EBE701A8FFF761FD019B01268E
S31500004D1063612030E8E7094BC018089B1860084B10
S31500004D20F3189B00E3185869FFF730FD7601E3E7B7
S31500004D308D6900009E690000CDFBFFFFCEFBFFFFE3
S31500004D40FFFFFF3F936810B5013B9360002B04DA29
S31500004D509469A34207DB0A2905D01368581C106022
S31500004D601970080010BDFEF7FFFB0100F9E7F8B562
S31500004D7006000F001400D518AC4201D1002007E050
S31500004D8021783A003000FFF7DDFF0134431CF3D1F0
S31500004D90F8BDFFFFF0B5A1B00D0017001E0003908F
S31500004DA018B1036A0BB9FEF7E9FA6B6EDB0705D497
S31500004DB0AB899B0502D4A86DFEF7C5FCAB891B0722
S31500004DC001D52B6993B929000398FEF70BFC68B14E
S31500004DD06B6EDB0703D50120404221B0F0BDAB89E5
S31500004DE09B05F8D4A86DFEF7AFFCF4E7002308ACEA
S31500004DF06361203363761033A37607963E003378DB
S31500004E000BB1252B46D1F31B0593BE420BD03A00BE
S31500004E1029000398FFF7ABFF013000D1AEE06369CC
S31500004E20059A9B1863613378002B00D1A6E0012216
S31500004E3000235242626004A954325218771C236040
S31500004E40E360A3601370A365052239785748FEF71F
S31500004E507CFC7E1C00BB2268D30604D5532304A920
S31500004E605B1820211970130704D5532304A95B1876
S31500004E702B2119703B782A2B17D03E00002140F2D7
S31500004E800A0C0127E3683278701C303A092A4DD99A
S31500004E9089B917E00136B2E7444B2268C01A0123EC
S31500004EA08340134337002360CEE7079B191D1B6819
S31500004EB00791002B01DB0B9304E05B42E3600223C6
S31500004EC01343236033782E2B0CD173782A2B33D1DE
S31500004ED0079B02361A1D1B680792002B01DA012375
S31500004EE05B420993324F032238003178FEF72DFCDE
S31500004EF030B14023C01B8340226801361343236030
S31500004F00317806222B48771C2176FEF71EFC0028F6
S31500004F1043D0294B33BB0722079B07339343083300
S31500004F2007936369049A9B18636167E761464B437D
S31500004F30060039009B18A6E7002340F20A0C1A0067
S31500004F400127013663603178701C3039092903D98D
S31500004F50002BC7D00992C5E763465A4306003B00BB
S31500004F605218F0E707AB00932A002100134B039871
S31500004F70FDF7C8FD0490049B0133D2D16B6EDB07AD
S31500004F8005D4AB899B0502D4A86DFEF7DDFBAB8982
S31500004F905B0600D51FE70D981FE707AB00932A00B5
S31500004FA02100064B0398FEF753F8E3E7F869000083
S31500004FB0FE690000026A0000052B00006F4D00002C
S31500004FC0F7B50C228B5E05000C001A0753D44A680D
S31500004FD0002A02DC0A6C002A4BDDE76A002F48D063
S31500004FE0002241F200002E682A601A00216A02405F
S31500004FF0034230D0626DA3895B0705D56368D21A78
S31500005000636B0BB1236CD21A00232800E76A216A6E
S31500005010B847A289431C06D129681D2944D8284BC4
S31500005020CB40DB0740D50023636023692360D204AD
S3150000503004D5431C01D12B6803B96065616B2E60F2
S31500005040B9B123004433994202D02800FFF7F6F99C
S31500005050002363630DE001232800B8470200431CC8
S31500005060C9D12B68002BC6D01D2B01D0162B1AD107
S315000050702E6000201EE00E69002EFAD00F680E602A
S31500005080BA1B019200229B0700D14A69A260019BCC
S31500005090002BEEDDA36A32001F002800019B216A67
S315000050A0B847002807DCA2894023012013431BB21E
S315000050B0A3814042FEBD019B36181B1A0193E6E709
S315000050C0010040200B6970B505000C0013B90025DE
S315000050D0280070BD18B1036A0BB9FEF74FF90C2210
S315000050E0A35E002BF3D0626ED20704D49B0502D4D4
S315000050F0A06DFEF728FB28002100FFF761FF636E15
S315000051000500DB07E4D4A3899B05E1D4A06DFEF777
S315000051101BFBDDE770B50E001D000E23C95E1400F3
S3150000512096B000290CDAB2898023110019401A4280
S3150000513014D140F2004300202960236016B070BDF0
S315000051406A4600F083F80028EDDB4FF20003019970
S315000051501940044BC9184B425941EAE70021402344
S31500005160E9E7C04600E0FFFFF0B502268B8905009F
S315000051700C0085B0334207D02300473323602361F8
S315000051800123636105B0F0BD03AB02AAFFF7C2FFBE
S31500005190029F019039002800FFF7C4F940B90C229C
S315000051A0A35E9A05EED4032293431E43A681E3E74A
S315000051B08023A28920601343A381039B206167613A
S315000051C05BB128000E23E15E00F052F828B10323FC
S315000051D0A2899A43023B1343A381A389019A1343ED
S315000051E0A381CFE770B506000D00140018B1036A5D
S315000051F00BB9FEF7C3F8636EDB0705D4A3899B05DD
S3150000520002D4A06DFEF79FFAA368013BA360002BB2
S3150000521005DAA269934212DBEBB20A2B0FD02368A0
S315000052205A1C22601D70EDB2636EDB0705D4A3899C
S315000052309B0502D4A06DFEF787FA280070BD2900F1
S3150000524022003000FEF790F90500EDE7002370B567
S31500005250064D0400080011002B6001F0B9F9431C4B
S3150000526002D12B6803B1236070BDC046C84500203B
S31500005270002370B5054D040008002B6001F0B2F95B
S31500005280431C02D12B6803B1236070BDC8450020C2
S31500005290002370B5054D040008002B60FCF73CFCAC
S315000052A0431C02D12B6803B1236070BDC8450020A2
S315000052B00B0C70B5150CEBB965B989B294B24C43B9
S315000052C02100FFF72FF90500D0B122000021FEF7DB
S315000052D0E1F915E02B1C0C1C89B292B24A439BB231
S315000052E0A1B25943140C0C19230C33B9240492B2FD
S315000052F01443E5E70DB9141CEEE70C230025036003
S31500005300280070BD82B001B901A910002AB133B1DD
S3150000531013780B601078431E984102B07047022044
S315000053204042FAE70300080029B1FF2A04D98A227D
S3150000533001201A604042704701200A70FBE7FFFF18
S3150000534002B4714649084900095C49008E4402BC12
S315000053507047C04603B47146490840004900095EDB
S3150000536049008E4403BC70478446100062468C4652
S315000053701900634600E0C0461FB500F067FC002830
S3150000538001D40021C8421FBD10B500F0ADFB40425C
S31500005390013010BD10B500F059FC002801DB0020DB
S315000053A010BD012010BDC04610B500F04FFC00280E
S315000053B001DD002010BD012010BDC04610B500F073
S315000053C0D7FB002801DC002010BD012010BDC0461F
S315000053D010B500F0CDFB002801DA002010BD012039
S315000053E010BDC046F0B5CE46474680B50D0383B026
S315000053F0009201934E00C300CC0F690A450F0D437E
S315000054009946009A019B19035F00D80F530F009A23
S31500005410490A760D7F0D0B43AC46D200F11B844240
S3150000542000D1BBE0002900DC82E0002F00D1F9E0CA
S3150000543040F2FF70864200D19CE10125382914DC38
S315000054408020000403431F2900DD06E220201D0002
S31500005450401A170082408540CF40501E82413D438E
S31500005460CB4015436246D31A9C464B465D1BA94565
S315000054708041634640421B1A984643461B0200D4AD
S3150000548045E143465B025B0A98464346002B00D142
S315000054901EE14046FCF70CFC0100083920222F00D3
S315000054A0531A4046DF4088403B008D4003438E42FE
S315000054B000DDCDE1881B29000130121AC14095405C
S315000054C08846691E8D41190091400A004146C34035
S315000054D029430D009846002615436B0709D00F2374
S315000054E02B40042B05D02B1DAB42AD416D42A84489
S315000054F01D0043461B0200D4C4E240F2FF7301368E
S315000055009E4200D1DFE04146D04A334011400A00B6
S315000055105707ED0852022F43120B1B051343E407EE
S3150000552023433800190003B0C0BCB946B046F0BDED
S31500005530002900D18AE0B91B002E00D076E12C00AC
S315000055404D462C43002C00D1D2E14C1E012900D13E
S3150000555055E240F2FF75A94200D108E20125382C38
S3150000556013DC21001F2900DD08E2202465464E4693
S31500005570641AA540CE4035434E46A6403400661E0A
S31500005580B44125436446CC401B1B551BAA4292419D
S3150000559052429B1A984604003E006EE7002900DC42
S315000055A0BAE0002F00D083E018001043002800D195
S315000055B0F3E0481E012900D1ACE140F2FF75A94293
S315000055C000D1D7E00125382810DC01001F2900DDB5
S315000055D0BAE120201D00401A170082408540CF40C6
S315000055E0501E8241CB403D4315439C444D444D459E
S315000055F0804140426044804643461B0200D486E018
S3150000560040F2FF7301369E425DD042468F4B012128
S315000056101A40130029406A080A43DD075B089846CA
S3150000562015435AE718001043002800D1B5E0481E7C
S31500005630012900D17DE140F2FF75A94200D199E030
S315000056400125382800DD10E70100FCE640F2FE7572
S31500005650771C3D4200D0D5E04F4665463D431F00CE
S315000056601743002E00D047E1002D00D1BAE1002FEC
S3150000567000D178E14D46AD1AA8466546C145B6410A
S31500005680ED1A7642AD1B80263604354200D109E27A
S315000056904C46151BAA429241644652421B1B9A1A5B
S315000056A0324200D117E2694B04001A4001232FE76A
S315000056B040F2FF7086425DD00125382996DC8020B5
S315000056C00004034382E740F2FF730022002724E729
S315000056D02800FCF7EDFA010018311F2900DCDDE691
S315000056E02B00083883408E4200DDC5E0891B481C2C
S315000056F01F2800DCCAE11D001F39CD40202805D037
S315000057004022121A93405A1E93411D4300266B07EE
S3150000571000D0E4E6310009E100294ED0B91B002E85
S3150000572000D1B4E040F2FF70874200D123E10125A9
S31500005730382917DC8020654600040543AC461F293E
S3150000574000DD8CE1202065464E46401A8540CE405D
S3150000575035434E4686403000461EB04105436046FE
S31500005760C8401B18AD1895429241524290463E00E1
S31500005770984441E74B46DA0863465F071743DD085E
S315000057802B003B43002B00D1A0E1802212032A43C9
S31500005790120340F2FF73120BBFE64B46DA0863466C
S315000057A05F07DD0840F2FF7317439942E8D040F2E5
S315000057B0FF732A03120B0B40AFE640F2FE70771C14
S315000057C0384278D128004D462843002E00D0E8E024
S315000057D0002800D13FE118001043002800D1C2E0A4
S315000057E04A444A458041634440421B18D208190284
S315000057F000D465E115490B405F075B0217431A0B9E
S3150000580001238AE649468D1AA945BF4161467F4272
S31500005810C91AC91B884609025FD447462F43002F81
S3150000582000D032E600240023002276E640F2FF7420
S31500005830A74200D19BE00125382900DDA5E680249A
